{
  "_format": "hh-sol-artifact-1",
  "contractName": "RoomFactory",
  "sourceName": "contracts/RoomFactory.sol",
  "abi": [
    {
      "anonymous": false,
      "inputs": [
        {
          "indexed": true,
          "internalType": "address",
          "name": "roomAddress",
          "type": "address"
        },
        {
          "indexed": false,
          "internalType": "uint256",
          "name": "threshold",
          "type": "uint256"
        }
      ],
      "name": "RoomDeployed",
      "type": "event"
    },
    {
      "inputs": [
        {
          "internalType": "uint256",
          "name": "_threshold",
          "type": "uint256"
        }
      ],
      "name": "DeployNewRoom",
      "outputs": [],
      "stateMutability": "nonpayable",
      "type": "function"
    },
    {
      "inputs": [
        {
          "internalType": "uint256",
          "name": "",
          "type": "uint256"
        }
      ],
      "name": "RoomsList",
      "outputs": [
        {
          "internalType": "contract Room",
          "name": "",
          "type": "address"
        }
      ],
      "stateMutability": "view",
      "type": "function"
    },
    {
      "inputs": [
        {
          "internalType": "uint256",
          "name": "_roomIndex",
          "type": "uint256"
        }
      ],
      "name": "roomGetter",
      "outputs": [
        {
          "internalType": "address",
          "name": "",
          "type": "address"
        }
      ],
      "stateMutability": "view",
      "type": "function"
    }
  ],
  "bytecode": "0x608060405234801561001057600080fd5b50614f43806100206000396000f3fe60806040523480156200001157600080fd5b5060043610620000465760003560e01c806368bf862c146200004b578063a37b93d81462000081578063fb328e8414620000b7575b600080fd5b620000696004803603810190620000639190620002a3565b620000d7565b6040516200007891906200031a565b60405180910390f35b6200009f6004803603810190620000999190620002a3565b62000121565b604051620000ae9190620003a2565b60405180910390f35b620000d56004803603810190620000cf9190620002a3565b62000161565b005b6000808281548110620000ef57620000ee620003bf565b5b9060005260206000200160009054906101000a900473ffffffffffffffffffffffffffffffffffffffff169050919050565b600081815481106200013257600080fd5b906000526020600020016000915054906101000a900473ffffffffffffffffffffffffffffffffffffffff1681565b600081604051620001729062000255565b6200017e9190620003ff565b604051809103906000f0801580156200019b573d6000803e3d6000fd5b5090506000819080600181540180825580915050600190039060005260206000200160009091909190916101000a81548173ffffffffffffffffffffffffffffffffffffffff021916908373ffffffffffffffffffffffffffffffffffffffff1602179055508073ffffffffffffffffffffffffffffffffffffffff167f4ef6f66781666895f2d76fd5ec65bc62dc4ddfbea0ecdf4efed4cc878f0436f683604051620002499190620003ff565b60405180910390a25050565b614af1806200041d83390190565b600080fd5b6000819050919050565b6200027d8162000268565b81146200028957600080fd5b50565b6000813590506200029d8162000272565b92915050565b600060208284031215620002bc57620002bb62000263565b5b6000620002cc848285016200028c565b91505092915050565b600073ffffffffffffffffffffffffffffffffffffffff82169050919050565b60006200030282620002d5565b9050919050565b6200031481620002f5565b82525050565b600060208201905062000331600083018462000309565b92915050565b6000819050919050565b6000620003626200035c6200035684620002d5565b62000337565b620002d5565b9050919050565b6000620003768262000341565b9050919050565b60006200038a8262000369565b9050919050565b6200039c816200037d565b82525050565b6000602082019050620003b9600083018462000391565b92915050565b7f4e487b7100000000000000000000000000000000000000000000000000000000600052603260045260246000fd5b620003f98162000268565b82525050565b6000602082019050620004166000830184620003ee565b9291505056fe60806040523480156200001157600080fd5b5060405162004af138038062004af1833981810160405281019062000037919062000158565b6040518060400160405280600f81526020017f477561726469616e204d61726b657200000000000000000000000000000000008152506040518060400160405280600481526020017f4752444e000000000000000000000000000000000000000000000000000000008152508160009081620000b49190620003fa565b508060019081620000c69190620003fa565b5050508060098190555033600a60006101000a81548173ffffffffffffffffffffffffffffffffffffffff021916908373ffffffffffffffffffffffffffffffffffffffff16021790555050620004e1565b600080fd5b6000819050919050565b62000132816200011d565b81146200013e57600080fd5b50565b600081519050620001528162000127565b92915050565b60006020828403121562000171576200017062000118565b5b6000620001818482850162000141565b91505092915050565b600081519050919050565b7f4e487b7100000000000000000000000000000000000000000000000000000000600052604160045260246000fd5b7f4e487b7100000000000000000000000000000000000000000000000000000000600052602260045260246000fd5b600060028204905060018216806200020c57607f821691505b602082108103620002225762000221620001c4565b5b50919050565b60008190508160005260206000209050919050565b60006020601f8301049050919050565b600082821b905092915050565b6000600883026200028c7fffffffffffffffffffffffffffffffffffffffffffffffffffffffffffffffff826200024d565b6200029886836200024d565b95508019841693508086168417925050509392505050565b6000819050919050565b6000620002db620002d5620002cf846200011d565b620002b0565b6200011d565b9050919050565b6000819050919050565b620002f783620002ba565b6200030f6200030682620002e2565b8484546200025a565b825550505050565b600090565b6200032662000317565b62000333818484620002ec565b505050565b5b818110156200035b576200034f6000826200031c565b60018101905062000339565b5050565b601f821115620003aa57620003748162000228565b6200037f846200023d565b810160208510156200038f578190505b620003a76200039e856200023d565b83018262000338565b50505b505050565b600082821c905092915050565b6000620003cf60001984600802620003af565b1980831691505092915050565b6000620003ea8383620003bc565b9150826002028217905092915050565b62000405826200018a565b67ffffffffffffffff81111562000421576200042062000195565b5b6200042d8254620001f3565b6200043a8282856200035f565b600060209050601f8311600181146200047257600084156200045d578287015190505b620004698582620003dc565b865550620004d9565b601f198416620004828662000228565b60005b82811015620004ac5784890151825560018201915060208501945060208101905062000485565b86831015620004cc5784890151620004c8601f891682620003bc565b8355505b6001600288020188555050505b505050505050565b61460080620004f16000396000f3fe608060405234801561001057600080fd5b50600436106101ef5760003560e01c80636a3f801b1161010f578063b6678dcc116100a2578063d547741f11610071578063d547741f146105ee578063d5f394881461060a578063e985e9c514610628578063fd9fafb414610658576101ef565b8063b6678dcc14610556578063b88d4fde14610586578063c0318768146105a2578063c87b56dd146105be576101ef565b806395d89b41116100de57806395d89b41146104e0578063a217fddf146104fe578063a22cb4651461051c578063a60e118914610538576101ef565b80636a3f801b1461044857806370a08231146104645780637ae56f5f1461049457806391d14854146104b0576101ef565b8063248a9ca31161018757806342842e0e1161015657806342842e0e146103ae57806342cde4e8146103ca5780635ff270ed146103e85780636352211e14610418576101ef565b8063248a9ca3146103145780632e3f4da3146103445780632f2ff15d1461037657806336568abe14610392576101ef565b8063081812fc116101c3578063081812fc1461028e578063095ea7b3146102be578063200d2ed2146102da57806323b872dd146102f8576101ef565b8062228844146101f457806301ffc9a7146102245780630274726f1461025457806306fdde0314610270575b600080fd5b61020e60048036038101906102099190612ff5565b610674565b60405161021b919061307f565b60405180910390f35b61023e600480360381019061023991906130f2565b61069b565b60405161024b919061307f565b60405180910390f35b61026e60048036038101906102699190613155565b6106ad565b005b6102786108b5565b6040516102859190613201565b60405180910390f35b6102a860048036038101906102a39190613155565b610947565b6040516102b59190613232565b60405180910390f35b6102d860048036038101906102d3919061324d565b61098d565b005b6102e2610aa4565b6040516102ef9190613304565b60405180910390f35b610312600480360381019061030d919061331f565b610ab7565b005b61032e60048036038101906103299190613372565b610b17565b60405161033b91906133ae565b60405180910390f35b61035e60048036038101906103599190613155565b610b37565b60405161036d939291906133d8565b60405180910390f35b610390600480360381019061038b919061340f565b610b8e565b005b6103ac60048036038101906103a7919061340f565b610baf565b005b6103c860048036038101906103c3919061331f565b610c32565b005b6103d2610c52565b6040516103df919061344f565b60405180910390f35b61040260048036038101906103fd9190613155565b610c58565b60405161040f9190613232565b60405180910390f35b610432600480360381019061042d9190613155565b610c98565b60405161043f9190613232565b60405180910390f35b610462600480360381019061045d9190613155565b610d1e565b005b61047e6004803603810190610479919061346a565b610e3c565b60405161048b919061344f565b60405180910390f35b6104ae60048036038101906104a9919061355f565b610ef3565b005b6104ca60048036038101906104c5919061340f565b610fe6565b6040516104d7919061307f565b60405180910390f35b6104e8611051565b6040516104f59190613201565b60405180910390f35b6105066110e3565b60405161051391906133ae565b60405180910390f35b610536600480360381019061053191906135e7565b6110ea565b005b610540611100565b60405161054d919061344f565b60405180910390f35b610570600480360381019061056b9190613155565b61110c565b60405161057d91906136e5565b60405180910390f35b6105a0600480360381019061059b9190613707565b6111b0565b005b6105bc60048036038101906105b7919061378a565b611212565b005b6105d860048036038101906105d39190613155565b611408565b6040516105e59190613201565b60405180910390f35b6106086004803603810190610603919061340f565b611470565b005b610612611491565b60405161061f9190613232565b60405180910390f35b610642600480360381019061063d91906137d3565b6114b7565b60405161064f919061307f565b60405180910390f35b610672600480360381019061066d9190613155565b61154b565b005b600061068184848461161e565b1561068f5760019050610694565b600090505b9392505050565b60006106a6826116ad565b9050919050565b600080600b60008481526020019081526020016000206002018054905090503373ffffffffffffffffffffffffffffffffffffffff16600b600085815260200190815260200160002060010160009054906101000a900473ffffffffffffffffffffffffffffffffffffffff1673ffffffffffffffffffffffffffffffffffffffff160361073a57600191505b60005b818110156107f157821580156107d057503373ffffffffffffffffffffffffffffffffffffffff16600b6000868152602001908152602001600020600201828154811061078d5761078c613813565b5b9060005260206000200160009054906101000a900473ffffffffffffffffffffffffffffffffffffffff1673ffffffffffffffffffffffffffffffffffffffff16145b156107de57600192506107f1565b80806107e990613871565b91505061073d565b506001151582151514610839576040517f08c379a00000000000000000000000000000000000000000000000000000000081526004016108309061392b565b60405180910390fd5b6002600b600085815260200190815260200160002060030160006101000a81548160ff021916908360038111156108735761087261328d565b5b0217905550827f1ff878085754431bc40bf652cbbe6cd378f0cc643422215a9c56a0b99999dd75336040516108a89190613232565b60405180910390a2505050565b6060600080546108c49061397a565b80601f01602080910402602001604051908101604052809291908181526020018280546108f09061397a565b801561093d5780601f106109125761010080835404028352916020019161093d565b820191906000526020600020905b81548152906001019060200180831161092057829003601f168201915b5050505050905090565b600061095282611727565b6004600083815260200190815260200160002060009054906101000a900473ffffffffffffffffffffffffffffffffffffffff169050919050565b600061099882610c98565b90508073ffffffffffffffffffffffffffffffffffffffff168373ffffffffffffffffffffffffffffffffffffffff1603610a08576040517f08c379a00000000000000000000000000000000000000000000000000000000081526004016109ff90613a1d565b60405180910390fd5b8073ffffffffffffffffffffffffffffffffffffffff16610a27611772565b73ffffffffffffffffffffffffffffffffffffffff161480610a565750610a5581610a50611772565b6114b7565b5b610a95576040517f08c379a0000000000000000000000000000000000000000000000000000000008152600401610a8c90613aaf565b60405180910390fd5b610a9f838361177a565b505050565b600c60009054906101000a900460ff1681565b610ac8610ac2611772565b82611833565b610b07576040517f08c379a0000000000000000000000000000000000000000000000000000000008152600401610afe90613b41565b60405180910390fd5b610b128383836118c8565b505050565b600060066000838152602001908152602001600020600101549050919050565b600b6020528060005260406000206000915090508060000154908060010160009054906101000a900473ffffffffffffffffffffffffffffffffffffffff16908060030160009054906101000a900460ff16905083565b610b9782610b17565b610ba081611bc1565b610baa8383611bd5565b505050565b610bb7611772565b73ffffffffffffffffffffffffffffffffffffffff168173ffffffffffffffffffffffffffffffffffffffff1614610c24576040517f08c379a0000000000000000000000000000000000000000000000000000000008152600401610c1b90613bd3565b60405180910390fd5b610c2e8282611cb6565b5050565b610c4d838383604051806020016040528060008152506111b0565b505050565b60095481565b6000600b600083815260200190815260200160002060010160009054906101000a900473ffffffffffffffffffffffffffffffffffffffff169050919050565b600080610ca483611d98565b9050600073ffffffffffffffffffffffffffffffffffffffff168173ffffffffffffffffffffffffffffffffffffffff1603610d15576040517f08c379a0000000000000000000000000000000000000000000000000000000008152600401610d0c90613c3f565b60405180910390fd5b80915050919050565b600b600082815260200190815260200160002060010160009054906101000a900473ffffffffffffffffffffffffffffffffffffffff1673ffffffffffffffffffffffffffffffffffffffff163373ffffffffffffffffffffffffffffffffffffffff1614610dc2576040517f08c379a0000000000000000000000000000000000000000000000000000000008152600401610db990613cd1565b60405180910390fd5b6003600b600083815260200190815260200160002060030160006101000a81548160ff02191690836003811115610dfc57610dfb61328d565b5b0217905550807f3b91d866cc0854da3f9b87455a475757c6f3399c0d65262bf2046ca36b65c1a433604051610e319190613232565b60405180910390a250565b60008073ffffffffffffffffffffffffffffffffffffffff168273ffffffffffffffffffffffffffffffffffffffff1603610eac576040517f08c379a0000000000000000000000000000000000000000000000000000000008152600401610ea390613d63565b60405180910390fd5b600360008373ffffffffffffffffffffffffffffffffffffffff1673ffffffffffffffffffffffffffffffffffffffff168152602001908152602001600020549050919050565b600b600083815260200190815260200160002060010160009054906101000a900473ffffffffffffffffffffffffffffffffffffffff1673ffffffffffffffffffffffffffffffffffffffff163373ffffffffffffffffffffffffffffffffffffffff1603610fe257600b60008381526020019081526020016000206002016000610f7e9190612d3f565b80600b60008481526020019081526020016000206002019080519060200190610fa8929190612d60565b50817f1ba824621510730158e8899f3d50706275697b53a8267007f8e970042d678acc82604051610fd991906136e5565b60405180910390a25b5050565b60006006600084815260200190815260200160002060000160008373ffffffffffffffffffffffffffffffffffffffff1673ffffffffffffffffffffffffffffffffffffffff16815260200190815260200160002060009054906101000a900460ff16905092915050565b6060600180546110609061397a565b80601f016020809104026020016040519081016040528092919081815260200182805461108c9061397a565b80156110d95780601f106110ae576101008083540402835291602001916110d9565b820191906000526020600020905b8154815290600101906020018083116110bc57829003601f168201915b5050505050905090565b6000801b81565b6110fc6110f5611772565b8383611dd5565b5050565b60088060000154905081565b6060600b60008381526020019081526020016000206002018054806020026020016040519081016040528092919081815260200182805480156111a457602002820191906000526020600020905b8160009054906101000a900473ffffffffffffffffffffffffffffffffffffffff1673ffffffffffffffffffffffffffffffffffffffff168152602001906001019080831161115a575b50505050509050919050565b6111c16111bb611772565b83611833565b611200576040517f08c379a00000000000000000000000000000000000000000000000000000000081526004016111f790613b41565b60405180910390fd5b61120c84848484611f41565b50505050565b600061121e6008611f9d565b905033600b600083815260200190815260200160002060010160006101000a81548173ffffffffffffffffffffffffffffffffffffffff021916908373ffffffffffffffffffffffffffffffffffffffff16021790555081600b6000838152602001908152602001600020600201908051906020019061129f929190612d60565b506000600b600083815260200190815260200160002060020180549050905060005b8181101561134b5761132e600b600085815260200190815260200160002060020182815481106112f4576112f3613813565b5b9060005260206000200160009054906101000a900473ffffffffffffffffffffffffffffffffffffffff166113296007611f9d565b611fab565b61133860076121c8565b808061134390613871565b9150506112c1565b506001600b600084815260200190815260200160002060030160006101000a81548160ff021916908360038111156113865761138561328d565b5b0217905550817fdc360f7cda00ae7cba32ab55cfc6dd5856ca1be3c9522e15ab73927af6a5c515600b600085815260200190815260200160002060010160009054906101000a900473ffffffffffffffffffffffffffffffffffffffff166040516113f19190613232565b60405180910390a261140360086121c8565b505050565b606061141382611727565b600061141d6121de565b9050600081511161143d5760405180602001604052806000815250611468565b80611447846121f5565b604051602001611458929190613dbf565b6040516020818303038152906040525b915050919050565b61147982610b17565b61148281611bc1565b61148c8383611cb6565b505050565b600a60009054906101000a900473ffffffffffffffffffffffffffffffffffffffff1681565b6000600560008473ffffffffffffffffffffffffffffffffffffffff1673ffffffffffffffffffffffffffffffffffffffff16815260200190815260200160002060008373ffffffffffffffffffffffffffffffffffffffff1673ffffffffffffffffffffffffffffffffffffffff16815260200190815260200160002060009054906101000a900460ff16905092915050565b600a60009054906101000a900473ffffffffffffffffffffffffffffffffffffffff1673ffffffffffffffffffffffffffffffffffffffff163373ffffffffffffffffffffffffffffffffffffffff16146115db576040517f08c379a00000000000000000000000000000000000000000000000000000000081526004016115d290613e2f565b60405180910390fd5b806009819055507f1381e48482715615e1f982b4766b2824af1a877f7493af03528ef15e61f29d69600954604051611613919061344f565b60405180910390a150565b600080600061162d85856122c3565b91509150600060048111156116455761164461328d565b5b8160048111156116585761165761328d565b5b14801561169057508573ffffffffffffffffffffffffffffffffffffffff168273ffffffffffffffffffffffffffffffffffffffff16145b806116a257506116a1868686612314565b5b925050509392505050565b60007f7965db0b000000000000000000000000000000000000000000000000000000007bffffffffffffffffffffffffffffffffffffffffffffffffffffffff1916827bffffffffffffffffffffffffffffffffffffffffffffffffffffffff19161480611720575061171f82612458565b5b9050919050565b6117308161253a565b61176f576040517f08c379a000000000000000000000000000000000000000000000000000000000815260040161176690613c3f565b60405180910390fd5b50565b600033905090565b816004600083815260200190815260200160002060006101000a81548173ffffffffffffffffffffffffffffffffffffffff021916908373ffffffffffffffffffffffffffffffffffffffff160217905550808273ffffffffffffffffffffffffffffffffffffffff166117ed83610c98565b73ffffffffffffffffffffffffffffffffffffffff167f8c5be1e5ebec7d5bd14f71427d1e84f3dd0314c0f7b2291e5b200ac8c7c3b92560405160405180910390a45050565b60008061183f83610c98565b90508073ffffffffffffffffffffffffffffffffffffffff168473ffffffffffffffffffffffffffffffffffffffff161480611881575061188081856114b7565b5b806118bf57508373ffffffffffffffffffffffffffffffffffffffff166118a784610947565b73ffffffffffffffffffffffffffffffffffffffff16145b91505092915050565b8273ffffffffffffffffffffffffffffffffffffffff166118e882610c98565b73ffffffffffffffffffffffffffffffffffffffff161461193e576040517f08c379a000000000000000000000000000000000000000000000000000000000815260040161193590613ec1565b60405180910390fd5b600073ffffffffffffffffffffffffffffffffffffffff168273ffffffffffffffffffffffffffffffffffffffff16036119ad576040517f08c379a00000000000000000000000000000000000000000000000000000000081526004016119a490613f53565b60405180910390fd5b6119ba838383600161257b565b8273ffffffffffffffffffffffffffffffffffffffff166119da82610c98565b73ffffffffffffffffffffffffffffffffffffffff1614611a30576040517f08c379a0000000000000000000000000000000000000000000000000000000008152600401611a2790613ec1565b60405180910390fd5b6004600082815260200190815260200160002060006101000a81549073ffffffffffffffffffffffffffffffffffffffff02191690556001600360008573ffffffffffffffffffffffffffffffffffffffff1673ffffffffffffffffffffffffffffffffffffffff168152602001908152602001600020600082825403925050819055506001600360008473ffffffffffffffffffffffffffffffffffffffff1673ffffffffffffffffffffffffffffffffffffffff16815260200190815260200160002060008282540192505081905550816002600083815260200190815260200160002060006101000a81548173ffffffffffffffffffffffffffffffffffffffff021916908373ffffffffffffffffffffffffffffffffffffffff160217905550808273ffffffffffffffffffffffffffffffffffffffff168473ffffffffffffffffffffffffffffffffffffffff167fddf252ad1be2c89b69c2b068fc378daa952ba7f163c4a11628f55a4df523b3ef60405160405180910390a4611bbc83838360016125fc565b505050565b611bd281611bcd611772565b612602565b50565b611bdf8282610fe6565b611cb25760016006600084815260200190815260200160002060000160008373ffffffffffffffffffffffffffffffffffffffff1673ffffffffffffffffffffffffffffffffffffffff16815260200190815260200160002060006101000a81548160ff021916908315150217905550611c57611772565b73ffffffffffffffffffffffffffffffffffffffff168173ffffffffffffffffffffffffffffffffffffffff16837f2f8788117e7eff1d82e926ec794901d17c78024a50270940304540a733656f0d60405160405180910390a45b5050565b611cc08282610fe6565b15611d945760006006600084815260200190815260200160002060000160008373ffffffffffffffffffffffffffffffffffffffff1673ffffffffffffffffffffffffffffffffffffffff16815260200190815260200160002060006101000a81548160ff021916908315150217905550611d39611772565b73ffffffffffffffffffffffffffffffffffffffff168173ffffffffffffffffffffffffffffffffffffffff16837ff6391f5c32d9c69d2a47ea670b442974b53935d1edc7fd64eb21e047a839171b60405160405180910390a45b5050565b60006002600083815260200190815260200160002060009054906101000a900473ffffffffffffffffffffffffffffffffffffffff169050919050565b8173ffffffffffffffffffffffffffffffffffffffff168373ffffffffffffffffffffffffffffffffffffffff1603611e43576040517f08c379a0000000000000000000000000000000000000000000000000000000008152600401611e3a90613fbf565b60405180910390fd5b80600560008573ffffffffffffffffffffffffffffffffffffffff1673ffffffffffffffffffffffffffffffffffffffff16815260200190815260200160002060008473ffffffffffffffffffffffffffffffffffffffff1673ffffffffffffffffffffffffffffffffffffffff16815260200190815260200160002060006101000a81548160ff0219169083151502179055508173ffffffffffffffffffffffffffffffffffffffff168373ffffffffffffffffffffffffffffffffffffffff167f17307eab39ab6107e8899845ad3d59bd9653f200f220920489ca2b5937696c3183604051611f34919061307f565b60405180910390a3505050565b611f4c8484846118c8565b611f5884848484612687565b611f97576040517f08c379a0000000000000000000000000000000000000000000000000000000008152600401611f8e90614051565b60405180910390fd5b50505050565b600081600001549050919050565b600073ffffffffffffffffffffffffffffffffffffffff168273ffffffffffffffffffffffffffffffffffffffff160361201a576040517f08c379a0000000000000000000000000000000000000000000000000000000008152600401612011906140bd565b60405180910390fd5b6120238161253a565b15612063576040517f08c379a000000000000000000000000000000000000000000000000000000000815260040161205a90614129565b60405180910390fd5b61207160008383600161257b565b61207a8161253a565b156120ba576040517f08c379a00000000000000000000000000000000000000000000000000000000081526004016120b190614129565b60405180910390fd5b6001600360008473ffffffffffffffffffffffffffffffffffffffff1673ffffffffffffffffffffffffffffffffffffffff16815260200190815260200160002060008282540192505081905550816002600083815260200190815260200160002060006101000a81548173ffffffffffffffffffffffffffffffffffffffff021916908373ffffffffffffffffffffffffffffffffffffffff160217905550808273ffffffffffffffffffffffffffffffffffffffff16600073ffffffffffffffffffffffffffffffffffffffff167fddf252ad1be2c89b69c2b068fc378daa952ba7f163c4a11628f55a4df523b3ef60405160405180910390a46121c46000838360016125fc565b5050565b6001816000016000828254019250508190555050565b606060405180602001604052806000815250905090565b6060600060016122048461280e565b01905060008167ffffffffffffffff81111561222357612222612eca565b5b6040519080825280601f01601f1916602001820160405280156122555781602001600182028036833780820191505090505b509050600082602001820190505b6001156122b8578080600190039150507f3031323334353637383961626364656600000000000000000000000000000000600a86061a8153600a85816122ac576122ab614149565b5b04945060008503612263575b819350505050919050565b60008060418351036123045760008060006020860151925060408601519150606086015160001a90506122f887828585612961565b9450945050505061230d565b60006002915091505b9250929050565b60008060008573ffffffffffffffffffffffffffffffffffffffff16631626ba7e60e01b868660405160240161234b9291906141cd565b604051602081830303815290604052907bffffffffffffffffffffffffffffffffffffffffffffffffffffffff19166020820180517bffffffffffffffffffffffffffffffffffffffffffffffffffffffff83818316178352505050506040516123b59190614239565b600060405180830381855afa9150503d80600081146123f0576040519150601f19603f3d011682016040523d82523d6000602084013e6123f5565b606091505b509150915081801561240957506020815110155b801561244d5750631626ba7e60e01b7bffffffffffffffffffffffffffffffffffffffffffffffffffffffff19168180602001905181019061244b9190614265565b145b925050509392505050565b60007f80ac58cd000000000000000000000000000000000000000000000000000000007bffffffffffffffffffffffffffffffffffffffffffffffffffffffff1916827bffffffffffffffffffffffffffffffffffffffffffffffffffffffff1916148061252357507f5b5e139f000000000000000000000000000000000000000000000000000000007bffffffffffffffffffffffffffffffffffffffffffffffffffffffff1916827bffffffffffffffffffffffffffffffffffffffffffffffffffffffff1916145b80612533575061253282612a43565b5b9050919050565b60008073ffffffffffffffffffffffffffffffffffffffff1661255c83611d98565b73ffffffffffffffffffffffffffffffffffffffff1614159050919050565b600073ffffffffffffffffffffffffffffffffffffffff168473ffffffffffffffffffffffffffffffffffffffff16146125ea576040517f08c379a00000000000000000000000000000000000000000000000000000000081526004016125e1906142de565b60405180910390fd5b6125f684848484612aad565b50505050565b50505050565b61260c8282610fe6565b6126835761261981612ab3565b6126278360001c6020612ae0565b604051602001612638929190614396565b6040516020818303038152906040526040517f08c379a000000000000000000000000000000000000000000000000000000000815260040161267a9190613201565b60405180910390fd5b5050565b60006126a88473ffffffffffffffffffffffffffffffffffffffff16612d1c565b15612801578373ffffffffffffffffffffffffffffffffffffffff1663150b7a026126d1611772565b8786866040518563ffffffff1660e01b81526004016126f394939291906143d0565b6020604051808303816000875af192505050801561272f57506040513d601f19601f8201168201806040525081019061272c9190614431565b60015b6127b1573d806000811461275f576040519150601f19603f3d011682016040523d82523d6000602084013e612764565b606091505b5060008151036127a9576040517f08c379a00000000000000000000000000000000000000000000000000000000081526004016127a090614051565b60405180910390fd5b805181602001fd5b63150b7a0260e01b7bffffffffffffffffffffffffffffffffffffffffffffffffffffffff1916817bffffffffffffffffffffffffffffffffffffffffffffffffffffffff191614915050612806565b600190505b949350505050565b600080600090507a184f03e93ff9f4daa797ed6e38ed64bf6a1f010000000000000000831061286c577a184f03e93ff9f4daa797ed6e38ed64bf6a1f010000000000000000838161286257612861614149565b5b0492506040810190505b6d04ee2d6d415b85acef810000000083106128a9576d04ee2d6d415b85acef8100000000838161289f5761289e614149565b5b0492506020810190505b662386f26fc1000083106128d857662386f26fc1000083816128ce576128cd614149565b5b0492506010810190505b6305f5e1008310612901576305f5e10083816128f7576128f6614149565b5b0492506008810190505b612710831061292657612710838161291c5761291b614149565b5b0492506004810190505b60648310612949576064838161293f5761293e614149565b5b0492506002810190505b600a8310612958576001810190505b80915050919050565b6000807f7fffffffffffffffffffffffffffffff5d576e7357a4501ddfe92f46681b20a08360001c111561299c576000600391509150612a3a565b6000600187878787604051600081526020016040526040516129c1949392919061447a565b6020604051602081039080840390855afa1580156129e3573d6000803e3d6000fd5b505050602060405103519050600073ffffffffffffffffffffffffffffffffffffffff168173ffffffffffffffffffffffffffffffffffffffff1603612a3157600060019250925050612a3a565b80600092509250505b94509492505050565b60007f01ffc9a7000000000000000000000000000000000000000000000000000000007bffffffffffffffffffffffffffffffffffffffffffffffffffffffff1916827bffffffffffffffffffffffffffffffffffffffffffffffffffffffff1916149050919050565b50505050565b6060612ad98273ffffffffffffffffffffffffffffffffffffffff16601460ff16612ae0565b9050919050565b606060006002836002612af391906144bf565b612afd9190614501565b67ffffffffffffffff811115612b1657612b15612eca565b5b6040519080825280601f01601f191660200182016040528015612b485781602001600182028036833780820191505090505b5090507f300000000000000000000000000000000000000000000000000000000000000081600081518110612b8057612b7f613813565b5b60200101907effffffffffffffffffffffffffffffffffffffffffffffffffffffffffffff1916908160001a9053507f780000000000000000000000000000000000000000000000000000000000000081600181518110612be457612be3613813565b5b60200101907effffffffffffffffffffffffffffffffffffffffffffffffffffffffffffff1916908160001a90535060006001846002612c2491906144bf565b612c2e9190614501565b90505b6001811115612cce577f3031323334353637383961626364656600000000000000000000000000000000600f861660108110612c7057612c6f613813565b5b1a60f81b828281518110612c8757612c86613813565b5b60200101907effffffffffffffffffffffffffffffffffffffffffffffffffffffffffffff1916908160001a905350600485901c945080612cc790614535565b9050612c31565b5060008414612d12576040517f08c379a0000000000000000000000000000000000000000000000000000000008152600401612d09906145aa565b60405180910390fd5b8091505092915050565b6000808273ffffffffffffffffffffffffffffffffffffffff163b119050919050565b5080546000825590600052602060002090810190612d5d9190612dea565b50565b828054828255906000526020600020908101928215612dd9579160200282015b82811115612dd85782518260006101000a81548173ffffffffffffffffffffffffffffffffffffffff021916908373ffffffffffffffffffffffffffffffffffffffff16021790555091602001919060010190612d80565b5b509050612de69190612dea565b5090565b5b80821115612e03576000816000905550600101612deb565b5090565b6000604051905090565b600080fd5b600080fd5b600073ffffffffffffffffffffffffffffffffffffffff82169050919050565b6000612e4682612e1b565b9050919050565b612e5681612e3b565b8114612e6157600080fd5b50565b600081359050612e7381612e4d565b92915050565b6000819050919050565b612e8c81612e79565b8114612e9757600080fd5b50565b600081359050612ea981612e83565b92915050565b600080fd5b600080fd5b6000601f19601f8301169050919050565b7f4e487b7100000000000000000000000000000000000000000000000000000000600052604160045260246000fd5b612f0282612eb9565b810181811067ffffffffffffffff82111715612f2157612f20612eca565b5b80604052505050565b6000612f34612e07565b9050612f408282612ef9565b919050565b600067ffffffffffffffff821115612f6057612f5f612eca565b5b612f6982612eb9565b9050602081019050919050565b82818337600083830152505050565b6000612f98612f9384612f45565b612f2a565b905082815260208101848484011115612fb457612fb3612eb4565b5b612fbf848285612f76565b509392505050565b600082601f830112612fdc57612fdb612eaf565b5b8135612fec848260208601612f85565b91505092915050565b60008060006060848603121561300e5761300d612e11565b5b600061301c86828701612e64565b935050602061302d86828701612e9a565b925050604084013567ffffffffffffffff81111561304e5761304d612e16565b5b61305a86828701612fc7565b9150509250925092565b60008115159050919050565b61307981613064565b82525050565b60006020820190506130946000830184613070565b92915050565b60007fffffffff0000000000000000000000000000000000000000000000000000000082169050919050565b6130cf8161309a565b81146130da57600080fd5b50565b6000813590506130ec816130c6565b92915050565b60006020828403121561310857613107612e11565b5b6000613116848285016130dd565b91505092915050565b6000819050919050565b6131328161311f565b811461313d57600080fd5b50565b60008135905061314f81613129565b92915050565b60006020828403121561316b5761316a612e11565b5b600061317984828501613140565b91505092915050565b600081519050919050565b600082825260208201905092915050565b60005b838110156131bc5780820151818401526020810190506131a1565b60008484015250505050565b60006131d382613182565b6131dd818561318d565b93506131ed81856020860161319e565b6131f681612eb9565b840191505092915050565b6000602082019050818103600083015261321b81846131c8565b905092915050565b61322c81612e3b565b82525050565b60006020820190506132476000830184613223565b92915050565b6000806040838503121561326457613263612e11565b5b600061327285828601612e64565b925050602061328385828601613140565b9150509250929050565b7f4e487b7100000000000000000000000000000000000000000000000000000000600052602160045260246000fd5b600481106132cd576132cc61328d565b5b50565b60008190506132de826132bc565b919050565b60006132ee826132d0565b9050919050565b6132fe816132e3565b82525050565b600060208201905061331960008301846132f5565b92915050565b60008060006060848603121561333857613337612e11565b5b600061334686828701612e64565b935050602061335786828701612e64565b925050604061336886828701613140565b9150509250925092565b60006020828403121561338857613387612e11565b5b600061339684828501612e9a565b91505092915050565b6133a881612e79565b82525050565b60006020820190506133c3600083018461339f565b92915050565b6133d28161311f565b82525050565b60006060820190506133ed60008301866133c9565b6133fa6020830185613223565b61340760408301846132f5565b949350505050565b6000806040838503121561342657613425612e11565b5b600061343485828601612e9a565b925050602061344585828601612e64565b9150509250929050565b600060208201905061346460008301846133c9565b92915050565b6000602082840312156134805761347f612e11565b5b600061348e84828501612e64565b91505092915050565b600067ffffffffffffffff8211156134b2576134b1612eca565b5b602082029050602081019050919050565b600080fd5b60006134db6134d684613497565b612f2a565b905080838252602082019050602084028301858111156134fe576134fd6134c3565b5b835b8181101561352757806135138882612e64565b845260208401935050602081019050613500565b5050509392505050565b600082601f83011261354657613545612eaf565b5b81356135568482602086016134c8565b91505092915050565b6000806040838503121561357657613575612e11565b5b600061358485828601613140565b925050602083013567ffffffffffffffff8111156135a5576135a4612e16565b5b6135b185828601613531565b9150509250929050565b6135c481613064565b81146135cf57600080fd5b50565b6000813590506135e1816135bb565b92915050565b600080604083850312156135fe576135fd612e11565b5b600061360c85828601612e64565b925050602061361d858286016135d2565b9150509250929050565b600081519050919050565b600082825260208201905092915050565b6000819050602082019050919050565b61365c81612e3b565b82525050565b600061366e8383613653565b60208301905092915050565b6000602082019050919050565b600061369282613627565b61369c8185613632565b93506136a783613643565b8060005b838110156136d85781516136bf8882613662565b97506136ca8361367a565b9250506001810190506136ab565b5085935050505092915050565b600060208201905081810360008301526136ff8184613687565b905092915050565b6000806000806080858703121561372157613720612e11565b5b600061372f87828801612e64565b945050602061374087828801612e64565b935050604061375187828801613140565b925050606085013567ffffffffffffffff81111561377257613771612e16565b5b61377e87828801612fc7565b91505092959194509250565b6000602082840312156137a05761379f612e11565b5b600082013567ffffffffffffffff8111156137be576137bd612e16565b5b6137ca84828501613531565b91505092915050565b600080604083850312156137ea576137e9612e11565b5b60006137f885828601612e64565b925050602061380985828601612e64565b9150509250929050565b7f4e487b7100000000000000000000000000000000000000000000000000000000600052603260045260246000fd5b7f4e487b7100000000000000000000000000000000000000000000000000000000600052601160045260246000fd5b600061387c8261311f565b91507fffffffffffffffffffffffffffffffffffffffffffffffffffffffffffffffff82036138ae576138ad613842565b5b600182019050919050565b7f53656e64657220776173206e65697468657220726571756573746f72206e6f7260008201527f20677561726469616e20666f72207468697320696e7374616e63650000000000602082015250565b6000613915603b8361318d565b9150613920826138b9565b604082019050919050565b6000602082019050818103600083015261394481613908565b9050919050565b7f4e487b7100000000000000000000000000000000000000000000000000000000600052602260045260246000fd5b6000600282049050600182168061399257607f821691505b6020821081036139a5576139a461394b565b5b50919050565b7f4552433732313a20617070726f76616c20746f2063757272656e74206f776e6560008201527f7200000000000000000000000000000000000000000000000000000000000000602082015250565b6000613a0760218361318d565b9150613a12826139ab565b604082019050919050565b60006020820190508181036000830152613a36816139fa565b9050919050565b7f4552433732313a20617070726f76652063616c6c6572206973206e6f7420746f60008201527f6b656e206f776e6572206f7220617070726f76656420666f7220616c6c000000602082015250565b6000613a99603d8361318d565b9150613aa482613a3d565b604082019050919050565b60006020820190508181036000830152613ac881613a8c565b9050919050565b7f4552433732313a2063616c6c6572206973206e6f7420746f6b656e206f776e6560008201527f72206f7220617070726f76656400000000000000000000000000000000000000602082015250565b6000613b2b602d8361318d565b9150613b3682613acf565b604082019050919050565b60006020820190508181036000830152613b5a81613b1e565b9050919050565b7f416363657373436f6e74726f6c3a2063616e206f6e6c792072656e6f756e636560008201527f20726f6c657320666f722073656c660000000000000000000000000000000000602082015250565b6000613bbd602f8361318d565b9150613bc882613b61565b604082019050919050565b60006020820190508181036000830152613bec81613bb0565b9050919050565b7f4552433732313a20696e76616c696420746f6b656e2049440000000000000000600082015250565b6000613c2960188361318d565b9150613c3482613bf3565b602082019050919050565b60006020820190508181036000830152613c5881613c1c565b9050919050565b7f4f6e6c7920726571756573746f72206d617920736574205374617475733a204260008201527f75726e6564000000000000000000000000000000000000000000000000000000602082015250565b6000613cbb60258361318d565b9150613cc682613c5f565b604082019050919050565b60006020820190508181036000830152613cea81613cae565b9050919050565b7f4552433732313a2061646472657373207a65726f206973206e6f74206120766160008201527f6c6964206f776e65720000000000000000000000000000000000000000000000602082015250565b6000613d4d60298361318d565b9150613d5882613cf1565b604082019050919050565b60006020820190508181036000830152613d7c81613d40565b9050919050565b600081905092915050565b6000613d9982613182565b613da38185613d83565b9350613db381856020860161319e565b80840191505092915050565b6000613dcb8285613d8e565b9150613dd78284613d8e565b91508190509392505050565b7f4f6e6c79204465706c6f796572206d61792075706461746520526f6f6d2e0000600082015250565b6000613e19601e8361318d565b9150613e2482613de3565b602082019050919050565b60006020820190508181036000830152613e4881613e0c565b9050919050565b7f4552433732313a207472616e736665722066726f6d20696e636f72726563742060008201527f6f776e6572000000000000000000000000000000000000000000000000000000602082015250565b6000613eab60258361318d565b9150613eb682613e4f565b604082019050919050565b60006020820190508181036000830152613eda81613e9e565b9050919050565b7f4552433732313a207472616e7366657220746f20746865207a65726f2061646460008201527f7265737300000000000000000000000000000000000000000000000000000000602082015250565b6000613f3d60248361318d565b9150613f4882613ee1565b604082019050919050565b60006020820190508181036000830152613f6c81613f30565b9050919050565b7f4552433732313a20617070726f766520746f2063616c6c657200000000000000600082015250565b6000613fa960198361318d565b9150613fb482613f73565b602082019050919050565b60006020820190508181036000830152613fd881613f9c565b9050919050565b7f4552433732313a207472616e7366657220746f206e6f6e20455243373231526560008201527f63656976657220696d706c656d656e7465720000000000000000000000000000602082015250565b600061403b60328361318d565b915061404682613fdf565b604082019050919050565b6000602082019050818103600083015261406a8161402e565b9050919050565b7f4552433732313a206d696e7420746f20746865207a65726f2061646472657373600082015250565b60006140a760208361318d565b91506140b282614071565b602082019050919050565b600060208201905081810360008301526140d68161409a565b9050919050565b7f4552433732313a20746f6b656e20616c7265616479206d696e74656400000000600082015250565b6000614113601c8361318d565b915061411e826140dd565b602082019050919050565b6000602082019050818103600083015261414281614106565b9050919050565b7f4e487b7100000000000000000000000000000000000000000000000000000000600052601260045260246000fd5b600081519050919050565b600082825260208201905092915050565b600061419f82614178565b6141a98185614183565b93506141b981856020860161319e565b6141c281612eb9565b840191505092915050565b60006040820190506141e2600083018561339f565b81810360208301526141f48184614194565b90509392505050565b600081905092915050565b600061421382614178565b61421d81856141fd565b935061422d81856020860161319e565b80840191505092915050565b60006142458284614208565b915081905092915050565b60008151905061425f81612e83565b92915050565b60006020828403121561427b5761427a612e11565b5b600061428984828501614250565b91505092915050565b7f546f6b656e206e6f74207472616e7366657261626c652e000000000000000000600082015250565b60006142c860178361318d565b91506142d382614292565b602082019050919050565b600060208201905081810360008301526142f7816142bb565b9050919050565b7f416363657373436f6e74726f6c3a206163636f756e7420000000000000000000600082015250565b6000614334601783613d83565b915061433f826142fe565b601782019050919050565b7f206973206d697373696e6720726f6c6520000000000000000000000000000000600082015250565b6000614380601183613d83565b915061438b8261434a565b601182019050919050565b60006143a182614327565b91506143ad8285613d8e565b91506143b882614373565b91506143c48284613d8e565b91508190509392505050565b60006080820190506143e56000830187613223565b6143f26020830186613223565b6143ff60408301856133c9565b81810360608301526144118184614194565b905095945050505050565b60008151905061442b816130c6565b92915050565b60006020828403121561444757614446612e11565b5b60006144558482850161441c565b91505092915050565b600060ff82169050919050565b6144748161445e565b82525050565b600060808201905061448f600083018761339f565b61449c602083018661446b565b6144a9604083018561339f565b6144b6606083018461339f565b95945050505050565b60006144ca8261311f565b91506144d58361311f565b92508282026144e38161311f565b915082820484148315176144fa576144f9613842565b5b5092915050565b600061450c8261311f565b91506145178361311f565b925082820190508082111561452f5761452e613842565b5b92915050565b60006145408261311f565b91506000820361455357614552613842565b5b600182039050919050565b7f537472696e67733a20686578206c656e67746820696e73756666696369656e74600082015250565b600061459460208361318d565b915061459f8261455e565b602082019050919050565b600060208201905081810360008301526145c381614587565b905091905056fea2646970667358221220451ddd6ba9f89f523db1e2259a56a352eb751c796dc39f58b6dc4c9e7694f8bd64736f6c63430008120033a2646970667358221220394f8cbbb0717b358470428d9962bf0eaea3b79a6b4b63498e186ad5ac0ad38d64736f6c63430008120033",
  "linkReferences": {},
  "deployedLinkReferences": {}
}